{
    "_format": "hh-sol-artifact-1",
    "contractName": "Ballot",
    "sourceName": "contracts/BalletTokenized.sol",
    "abi": [
        {
            "inputs": [
                {
                    "internalType": "bytes32[]",
                    "name": "proposalNames",
                    "type": "bytes32[]"
                },
                {
                    "internalType": "address",
                    "name": "_tokenContract",
                    "type": "address"
                },
                {
                    "internalType": "uint256",
                    "name": "_targetBlockNumber",
                    "type": "uint256"
                }
            ],
            "stateMutability": "nonpayable",
            "type": "constructor"
        },
        {
            "inputs": [],
            "name": "getNumProposals",
            "outputs": [
                {
                    "internalType": "uint256",
                    "name": "_numproposals",
                    "type": "uint256"
                }
            ],
            "stateMutability": "view",
            "type": "function"
        },
        {
            "inputs": [
                {
                    "internalType": "uint256",
                    "name": "",
                    "type": "uint256"
                }
            ],
            "name": "proposals",
            "outputs": [
                {
                    "internalType": "bytes32",
                    "name": "name",
                    "type": "bytes32"
                },
                {
                    "internalType": "uint256",
                    "name": "voteCount",
                    "type": "uint256"
                },
                {
                    "internalType": "uint256",
                    "name": "endTime",
                    "type": "uint256"
                }
            ],
            "stateMutability": "view",
            "type": "function"
        },
        {
            "inputs": [],
            "name": "targetBlockNumber",
            "outputs": [
                {
                    "internalType": "uint256",
                    "name": "",
                    "type": "uint256"
                }
            ],
            "stateMutability": "view",
            "type": "function"
        },
        {
            "inputs": [],
            "name": "tokenContract",
            "outputs": [
                {
                    "internalType": "contract IMyVoteToken",
                    "name": "",
                    "type": "address"
                }
            ],
            "stateMutability": "view",
            "type": "function"
        },
        {
            "inputs": [
                {
                    "internalType": "uint256",
                    "name": "proposal",
                    "type": "uint256"
                },
                {
                    "internalType": "uint256",
                    "name": "amount",
                    "type": "uint256"
                }
            ],
            "name": "vote",
            "outputs": [],
            "stateMutability": "nonpayable",
            "type": "function"
        },
        {
            "inputs": [
                {
                    "internalType": "address",
                    "name": "",
                    "type": "address"
                }
            ],
            "name": "voters",
            "outputs": [
                {
                    "internalType": "uint256",
                    "name": "weight",
                    "type": "uint256"
                },
                {
                    "internalType": "bool",
                    "name": "voted",
                    "type": "bool"
                },
                {
                    "internalType": "address",
                    "name": "delegate",
                    "type": "address"
                },
                {
                    "internalType": "uint256",
                    "name": "vote",
                    "type": "uint256"
                }
            ],
            "stateMutability": "view",
            "type": "function"
        },
        {
            "inputs": [
                {
                    "internalType": "address",
                    "name": "",
                    "type": "address"
                }
            ],
            "name": "votingPowerSpent",
            "outputs": [
                {
                    "internalType": "uint256",
                    "name": "",
                    "type": "uint256"
                }
            ],
            "stateMutability": "view",
            "type": "function"
        },
        {
            "inputs": [],
            "name": "winnerName",
            "outputs": [
                {
                    "internalType": "bytes32",
                    "name": "winnerName_",
                    "type": "bytes32"
                }
            ],
            "stateMutability": "view",
            "type": "function"
        },
        {
            "inputs": [],
            "name": "winningProposal",
            "outputs": [
                {
                    "internalType": "uint256",
                    "name": "winningProposal_",
                    "type": "uint256"
                },
                {
                    "internalType": "uint256",
                    "name": "winningVoteCount_",
                    "type": "uint256"
                }
            ],
            "stateMutability": "view",
            "type": "function"
        }
    ],
    "bytecode": "0x60806040523480156200001157600080fd5b50604051620012e5380380620012e58339818101604052810190620000379190620003a0565b816000806101000a81548173ffffffffffffffffffffffffffffffffffffffff021916908373ffffffffffffffffffffffffffffffffffffffff1602179055508060028190555060005b8351811015620001325760016040518060600160405280868481518110620000ae57620000ad6200041b565b5b60200260200101518152602001600081526020018442620000d0919062000479565b8152509080600181540180825580915050600190039060005260206000209060030201600090919091909150600082015181600001556020820151816001015560408201518160020155505080806200012990620004b4565b91505062000081565b5050505062000501565b6000604051905090565b600080fd5b600080fd5b600080fd5b6000601f19601f8301169050919050565b7f4e487b7100000000000000000000000000000000000000000000000000000000600052604160045260246000fd5b620001a08262000155565b810181811067ffffffffffffffff82111715620001c257620001c162000166565b5b80604052505050565b6000620001d76200013c565b9050620001e5828262000195565b919050565b600067ffffffffffffffff82111562000208576200020762000166565b5b602082029050602081019050919050565b600080fd5b6000819050919050565b62000233816200021e565b81146200023f57600080fd5b50565b600081519050620002538162000228565b92915050565b6000620002706200026a84620001ea565b620001cb565b9050808382526020820190506020840283018581111562000296576200029562000219565b5b835b81811015620002c35780620002ae888262000242565b84526020840193505060208101905062000298565b5050509392505050565b600082601f830112620002e557620002e462000150565b5b8151620002f784826020860162000259565b91505092915050565b600073ffffffffffffffffffffffffffffffffffffffff82169050919050565b60006200032d8262000300565b9050919050565b6200033f8162000320565b81146200034b57600080fd5b50565b6000815190506200035f8162000334565b92915050565b6000819050919050565b6200037a8162000365565b81146200038657600080fd5b50565b6000815190506200039a816200036f565b92915050565b600080600060608486031215620003bc57620003bb62000146565b5b600084015167ffffffffffffffff811115620003dd57620003dc6200014b565b5b620003eb86828701620002cd565b9350506020620003fe868287016200034e565b9250506040620004118682870162000389565b9150509250925092565b7f4e487b7100000000000000000000000000000000000000000000000000000000600052603260045260246000fd5b7f4e487b7100000000000000000000000000000000000000000000000000000000600052601160045260246000fd5b6000620004868262000365565b9150620004938362000365565b9250828201905080821115620004ae57620004ad6200044a565b5b92915050565b6000620004c18262000365565b91507fffffffffffffffffffffffffffffffffffffffffffffffffffffffffffffffff8203620004f657620004f56200044a565b5b600182019050919050565b610dd480620005116000396000f3fe608060405234801561001057600080fd5b50600436106100935760003560e01c8063798974dd11610066578063798974dd14610125578063a3ec138d14610143578063a720035114610176578063b384abef146101a6578063e2ba53f0146101c257610093565b8063013cf08b146100985780632a8cd29e146100ca57806355a373d6146100e8578063609ff1bd14610106575b600080fd5b6100b260048036038101906100ad91906107ca565b6101e0565b6040516100c19392919061081f565b60405180910390f35b6100d261021a565b6040516100df9190610856565b60405180910390f35b6100f0610220565b6040516100fd91906108f0565b60405180910390f35b61010e610244565b60405161011c92919061090b565b60405180910390f35b61012d6102cd565b60405161013a9190610856565b60405180910390f35b61015d60048036038101906101589190610972565b6102da565b60405161016d94939291906109c9565b60405180910390f35b610190600480360381019061018b9190610972565b610337565b60405161019d9190610856565b60405180910390f35b6101c060048036038101906101bb9190610a0e565b61034f565b005b6101ca610755565b6040516101d79190610a4e565b60405180910390f35b600181815481106101f057600080fd5b90600052602060002090600302016000915090508060000154908060010154908060020154905083565b60025481565b60008054906101000a900473ffffffffffffffffffffffffffffffffffffffff1681565b6000806000805b6001805490508110156102c457816001828154811061026d5761026c610a69565b5b90600052602060002090600302016001015411156102b1576001818154811061029957610298610a69565b5b90600052602060002090600302016001015491508093505b80806102bc90610ac7565b91505061024b565b50809150509091565b6000600180549050905090565b60046020528060005260406000206000915090508060000154908060010160009054906101000a900460ff16908060010160019054906101000a900473ffffffffffffffffffffffffffffffffffffffff16908060020154905084565b60036020528060005260406000206000915090505481565b8060008054906101000a900473ffffffffffffffffffffffffffffffffffffffff1673ffffffffffffffffffffffffffffffffffffffff16633a46b1a83360014361039a9190610b0f565b6040518363ffffffff1660e01b81526004016103b7929190610b43565b602060405180830381865afa1580156103d4573d6000803e3d6000fd5b505050506040513d601f19601f820116820180604052508101906103f89190610b81565b101561040357600080fd5b8060008054906101000a900473ffffffffffffffffffffffffffffffffffffffff1673ffffffffffffffffffffffffffffffffffffffff166370a08231336040518263ffffffff1660e01b815260040161045d9190610bae565b602060405180830381865afa15801561047a573d6000803e3d6000fd5b505050506040513d601f19601f8201168201806040525081019061049e9190610b81565b10156104df576040517f08c379a00000000000000000000000000000000000000000000000000000000081526004016104d690610c4c565b60405180910390fd5b600460003373ffffffffffffffffffffffffffffffffffffffff1673ffffffffffffffffffffffffffffffffffffffff16815260200190815260200160002060010160009054906101000a900460ff161561056f576040517f08c379a000000000000000000000000000000000000000000000000000000000815260040161056690610cb8565b60405180910390fd5b426001838154811061058457610583610a69565b5b906000526020600020906003020160020154116105d6576040517f08c379a00000000000000000000000000000000000000000000000000000000081526004016105cd90610d4a565b60405180910390fd5b80600460003373ffffffffffffffffffffffffffffffffffffffff1673ffffffffffffffffffffffffffffffffffffffff168152602001908152602001600020600001819055506001600460003373ffffffffffffffffffffffffffffffffffffffff1673ffffffffffffffffffffffffffffffffffffffff16815260200190815260200160002060010160006101000a81548160ff02191690831515021790555081600460003373ffffffffffffffffffffffffffffffffffffffff1673ffffffffffffffffffffffffffffffffffffffff1681526020019081526020016000206002018190555080600183815481106106d4576106d3610a69565b5b906000526020600020906003020160010160008282546106f49190610d6a565b9250508190555080600360003373ffffffffffffffffffffffffffffffffffffffff1673ffffffffffffffffffffffffffffffffffffffff168152602001908152602001600020600082825461074a9190610d6a565b925050819055505050565b600080610760610244565b5090506001818154811061077757610776610a69565b5b90600052602060002090600302016000015491505090565b600080fd5b6000819050919050565b6107a781610794565b81146107b257600080fd5b50565b6000813590506107c48161079e565b92915050565b6000602082840312156107e0576107df61078f565b5b60006107ee848285016107b5565b91505092915050565b6000819050919050565b61080a816107f7565b82525050565b61081981610794565b82525050565b60006060820190506108346000830186610801565b6108416020830185610810565b61084e6040830184610810565b949350505050565b600060208201905061086b6000830184610810565b92915050565b600073ffffffffffffffffffffffffffffffffffffffff82169050919050565b6000819050919050565b60006108b66108b16108ac84610871565b610891565b610871565b9050919050565b60006108c88261089b565b9050919050565b60006108da826108bd565b9050919050565b6108ea816108cf565b82525050565b600060208201905061090560008301846108e1565b92915050565b60006040820190506109206000830185610810565b61092d6020830184610810565b9392505050565b600061093f82610871565b9050919050565b61094f81610934565b811461095a57600080fd5b50565b60008135905061096c81610946565b92915050565b6000602082840312156109885761098761078f565b5b60006109968482850161095d565b91505092915050565b60008115159050919050565b6109b48161099f565b82525050565b6109c381610934565b82525050565b60006080820190506109de6000830187610810565b6109eb60208301866109ab565b6109f860408301856109ba565b610a056060830184610810565b95945050505050565b60008060408385031215610a2557610a2461078f565b5b6000610a33858286016107b5565b9250506020610a44858286016107b5565b9150509250929050565b6000602082019050610a636000830184610801565b92915050565b7f4e487b7100000000000000000000000000000000000000000000000000000000600052603260045260246000fd5b7f4e487b7100000000000000000000000000000000000000000000000000000000600052601160045260246000fd5b6000610ad282610794565b91507fffffffffffffffffffffffffffffffffffffffffffffffffffffffffffffffff8203610b0457610b03610a98565b5b600182019050919050565b6000610b1a82610794565b9150610b2583610794565b9250828203905081811115610b3d57610b3c610a98565b5b92915050565b6000604082019050610b5860008301856109ba565b610b656020830184610810565b9392505050565b600081519050610b7b8161079e565b92915050565b600060208284031215610b9757610b9661078f565b5b6000610ba584828501610b6c565b91505092915050565b6000602082019050610bc360008301846109ba565b92915050565b600082825260208201905092915050565b7f4e6f7420656e6f75676820746f6b656e7320746f20766f74652077697468207460008201527f6869732077656967687400000000000000000000000000000000000000000000602082015250565b6000610c36602a83610bc9565b9150610c4182610bda565b604082019050919050565b60006020820190508181036000830152610c6581610c29565b9050919050565b7f596f75206861766520616c726561647920766f74656400000000000000000000600082015250565b6000610ca2601683610bc9565b9150610cad82610c6c565b602082019050919050565b60006020820190508181036000830152610cd181610c95565b9050919050565b7f566f74696e6720706572696f6420666f7220746869732070726f706f73616c2060008201527f68617320656e6465640000000000000000000000000000000000000000000000602082015250565b6000610d34602983610bc9565b9150610d3f82610cd8565b604082019050919050565b60006020820190508181036000830152610d6381610d27565b9050919050565b6000610d7582610794565b9150610d8083610794565b9250828201905080821115610d9857610d97610a98565b5b9291505056fea26469706673582212201a99f8b137651d5f3c085ba8c737221b6d5dedb9bc033096c3b2ef71deff1b1d64736f6c63430008120033",
    "linkReferences": {},
    "deployedLinkReferences": {}
}