{
	"_format": "hh-sol-artifact-1",
	"contractName": "MyERC20Votes",
	"sourceName": "contracts/MyERC20Votes.sol",
	"abi": [
		{
			"inputs": [],
			"stateMutability": "nonpayable",
			"type": "constructor"
		},
		{
			"anonymous": false,
			"inputs": [
				{
					"indexed": true,
					"internalType": "address",
					"name": "owner",
					"type": "address"
				},
				{
					"indexed": true,
					"internalType": "address",
					"name": "spender",
					"type": "address"
				},
				{
					"indexed": false,
					"internalType": "uint256",
					"name": "value",
					"type": "uint256"
				}
			],
			"name": "Approval",
			"type": "event"
		},
		{
			"anonymous": false,
			"inputs": [
				{
					"indexed": true,
					"internalType": "address",
					"name": "delegator",
					"type": "address"
				},
				{
					"indexed": true,
					"internalType": "address",
					"name": "fromDelegate",
					"type": "address"
				},
				{
					"indexed": true,
					"internalType": "address",
					"name": "toDelegate",
					"type": "address"
				}
			],
			"name": "DelegateChanged",
			"type": "event"
		},
		{
			"anonymous": false,
			"inputs": [
				{
					"indexed": true,
					"internalType": "address",
					"name": "delegate",
					"type": "address"
				},
				{
					"indexed": false,
					"internalType": "uint256",
					"name": "previousBalance",
					"type": "uint256"
				},
				{
					"indexed": false,
					"internalType": "uint256",
					"name": "newBalance",
					"type": "uint256"
				}
			],
			"name": "DelegateVotesChanged",
			"type": "event"
		},
		{
			"anonymous": false,
			"inputs": [
				{
					"indexed": true,
					"internalType": "bytes32",
					"name": "role",
					"type": "bytes32"
				},
				{
					"indexed": true,
					"internalType": "bytes32",
					"name": "previousAdminRole",
					"type": "bytes32"
				},
				{
					"indexed": true,
					"internalType": "bytes32",
					"name": "newAdminRole",
					"type": "bytes32"
				}
			],
			"name": "RoleAdminChanged",
			"type": "event"
		},
		{
			"anonymous": false,
			"inputs": [
				{
					"indexed": true,
					"internalType": "bytes32",
					"name": "role",
					"type": "bytes32"
				},
				{
					"indexed": true,
					"internalType": "address",
					"name": "account",
					"type": "address"
				},
				{
					"indexed": true,
					"internalType": "address",
					"name": "sender",
					"type": "address"
				}
			],
			"name": "RoleGranted",
			"type": "event"
		},
		{
			"anonymous": false,
			"inputs": [
				{
					"indexed": true,
					"internalType": "bytes32",
					"name": "role",
					"type": "bytes32"
				},
				{
					"indexed": true,
					"internalType": "address",
					"name": "account",
					"type": "address"
				},
				{
					"indexed": true,
					"internalType": "address",
					"name": "sender",
					"type": "address"
				}
			],
			"name": "RoleRevoked",
			"type": "event"
		},
		{
			"anonymous": false,
			"inputs": [
				{
					"indexed": true,
					"internalType": "address",
					"name": "from",
					"type": "address"
				},
				{
					"indexed": true,
					"internalType": "address",
					"name": "to",
					"type": "address"
				},
				{
					"indexed": false,
					"internalType": "uint256",
					"name": "value",
					"type": "uint256"
				}
			],
			"name": "Transfer",
			"type": "event"
		},
		{
			"inputs": [],
			"name": "DEFAULT_ADMIN_ROLE",
			"outputs": [
				{
					"internalType": "bytes32",
					"name": "",
					"type": "bytes32"
				}
			],
			"stateMutability": "view",
			"type": "function"
		},
		{
			"inputs": [],
			"name": "DOMAIN_SEPARATOR",
			"outputs": [
				{
					"internalType": "bytes32",
					"name": "",
					"type": "bytes32"
				}
			],
			"stateMutability": "view",
			"type": "function"
		},
		{
			"inputs": [],
			"name": "MINTER_ROLE",
			"outputs": [
				{
					"internalType": "bytes32",
					"name": "",
					"type": "bytes32"
				}
			],
			"stateMutability": "view",
			"type": "function"
		},
		{
			"inputs": [
				{
					"internalType": "address",
					"name": "owner",
					"type": "address"
				},
				{
					"internalType": "address",
					"name": "spender",
					"type": "address"
				}
			],
			"name": "allowance",
			"outputs": [
				{
					"internalType": "uint256",
					"name": "",
					"type": "uint256"
				}
			],
			"stateMutability": "view",
			"type": "function"
		},
		{
			"inputs": [
				{
					"internalType": "address",
					"name": "spender",
					"type": "address"
				},
				{
					"internalType": "uint256",
					"name": "amount",
					"type": "uint256"
				}
			],
			"name": "approve",
			"outputs": [
				{
					"internalType": "bool",
					"name": "",
					"type": "bool"
				}
			],
			"stateMutability": "nonpayable",
			"type": "function"
		},
		{
			"inputs": [
				{
					"internalType": "address",
					"name": "account",
					"type": "address"
				}
			],
			"name": "balanceOf",
			"outputs": [
				{
					"internalType": "uint256",
					"name": "",
					"type": "uint256"
				}
			],
			"stateMutability": "view",
			"type": "function"
		},
		{
			"inputs": [
				{
					"internalType": "address",
					"name": "account",
					"type": "address"
				},
				{
					"internalType": "uint32",
					"name": "pos",
					"type": "uint32"
				}
			],
			"name": "checkpoints",
			"outputs": [
				{
					"components": [
						{
							"internalType": "uint32",
							"name": "fromBlock",
							"type": "uint32"
						},
						{
							"internalType": "uint224",
							"name": "votes",
							"type": "uint224"
						}
					],
					"internalType": "struct ERC20Votes.Checkpoint",
					"name": "",
					"type": "tuple"
				}
			],
			"stateMutability": "view",
			"type": "function"
		},
		{
			"inputs": [],
			"name": "decimals",
			"outputs": [
				{
					"internalType": "uint8",
					"name": "",
					"type": "uint8"
				}
			],
			"stateMutability": "view",
			"type": "function"
		},
		{
			"inputs": [
				{
					"internalType": "address",
					"name": "spender",
					"type": "address"
				},
				{
					"internalType": "uint256",
					"name": "subtractedValue",
					"type": "uint256"
				}
			],
			"name": "decreaseAllowance",
			"outputs": [
				{
					"internalType": "bool",
					"name": "",
					"type": "bool"
				}
			],
			"stateMutability": "nonpayable",
			"type": "function"
		},
		{
			"inputs": [
				{
					"internalType": "address",
					"name": "delegatee",
					"type": "address"
				}
			],
			"name": "delegate",
			"outputs": [],
			"stateMutability": "nonpayable",
			"type": "function"
		},
		{
			"inputs": [
				{
					"internalType": "address",
					"name": "delegatee",
					"type": "address"
				},
				{
					"internalType": "uint256",
					"name": "nonce",
					"type": "uint256"
				},
				{
					"internalType": "uint256",
					"name": "expiry",
					"type": "uint256"
				},
				{
					"internalType": "uint8",
					"name": "v",
					"type": "uint8"
				},
				{
					"internalType": "bytes32",
					"name": "r",
					"type": "bytes32"
				},
				{
					"internalType": "bytes32",
					"name": "s",
					"type": "bytes32"
				}
			],
			"name": "delegateBySig",
			"outputs": [],
			"stateMutability": "nonpayable",
			"type": "function"
		},
		{
			"inputs": [
				{
					"internalType": "address",
					"name": "account",
					"type": "address"
				}
			],
			"name": "delegates",
			"outputs": [
				{
					"internalType": "address",
					"name": "",
					"type": "address"
				}
			],
			"stateMutability": "view",
			"type": "function"
		},
		{
			"inputs": [
				{
					"internalType": "uint256",
					"name": "blockNumber",
					"type": "uint256"
				}
			],
			"name": "getPastTotalSupply",
			"outputs": [
				{
					"internalType": "uint256",
					"name": "",
					"type": "uint256"
				}
			],
			"stateMutability": "view",
			"type": "function"
		},
		{
			"inputs": [
				{
					"internalType": "address",
					"name": "account",
					"type": "address"
				},
				{
					"internalType": "uint256",
					"name": "blockNumber",
					"type": "uint256"
				}
			],
			"name": "getPastVotes",
			"outputs": [
				{
					"internalType": "uint256",
					"name": "",
					"type": "uint256"
				}
			],
			"stateMutability": "view",
			"type": "function"
		},
		{
			"inputs": [
				{
					"internalType": "bytes32",
					"name": "role",
					"type": "bytes32"
				}
			],
			"name": "getRoleAdmin",
			"outputs": [
				{
					"internalType": "bytes32",
					"name": "",
					"type": "bytes32"
				}
			],
			"stateMutability": "view",
			"type": "function"
		},
		{
			"inputs": [
				{
					"internalType": "address",
					"name": "account",
					"type": "address"
				}
			],
			"name": "getVotes",
			"outputs": [
				{
					"internalType": "uint256",
					"name": "",
					"type": "uint256"
				}
			],
			"stateMutability": "view",
			"type": "function"
		},
		{
			"inputs": [
				{
					"internalType": "bytes32",
					"name": "role",
					"type": "bytes32"
				},
				{
					"internalType": "address",
					"name": "account",
					"type": "address"
				}
			],
			"name": "grantRole",
			"outputs": [],
			"stateMutability": "nonpayable",
			"type": "function"
		},
		{
			"inputs": [
				{
					"internalType": "bytes32",
					"name": "role",
					"type": "bytes32"
				},
				{
					"internalType": "address",
					"name": "account",
					"type": "address"
				}
			],
			"name": "hasRole",
			"outputs": [
				{
					"internalType": "bool",
					"name": "",
					"type": "bool"
				}
			],
			"stateMutability": "view",
			"type": "function"
		},
		{
			"inputs": [
				{
					"internalType": "address",
					"name": "spender",
					"type": "address"
				},
				{
					"internalType": "uint256",
					"name": "addedValue",
					"type": "uint256"
				}
			],
			"name": "increaseAllowance",
			"outputs": [
				{
					"internalType": "bool",
					"name": "",
					"type": "bool"
				}
			],
			"stateMutability": "nonpayable",
			"type": "function"
		},
		{
			"inputs": [
				{
					"internalType": "address",
					"name": "to",
					"type": "address"
				},
				{
					"internalType": "uint256",
					"name": "amount",
					"type": "uint256"
				}
			],
			"name": "mint",
			"outputs": [],
			"stateMutability": "nonpayable",
			"type": "function"
		},
		{
			"inputs": [],
			"name": "name",
			"outputs": [
				{
					"internalType": "string",
					"name": "",
					"type": "string"
				}
			],
			"stateMutability": "view",
			"type": "function"
		},
		{
			"inputs": [
				{
					"internalType": "address",
					"name": "owner",
					"type": "address"
				}
			],
			"name": "nonces",
			"outputs": [
				{
					"internalType": "uint256",
					"name": "",
					"type": "uint256"
				}
			],
			"stateMutability": "view",
			"type": "function"
		},
		{
			"inputs": [
				{
					"internalType": "address",
					"name": "account",
					"type": "address"
				}
			],
			"name": "numCheckpoints",
			"outputs": [
				{
					"internalType": "uint32",
					"name": "",
					"type": "uint32"
				}
			],
			"stateMutability": "view",
			"type": "function"
		},
		{
			"inputs": [
				{
					"internalType": "address",
					"name": "owner",
					"type": "address"
				},
				{
					"internalType": "address",
					"name": "spender",
					"type": "address"
				},
				{
					"internalType": "uint256",
					"name": "value",
					"type": "uint256"
				},
				{
					"internalType": "uint256",
					"name": "deadline",
					"type": "uint256"
				},
				{
					"internalType": "uint8",
					"name": "v",
					"type": "uint8"
				},
				{
					"internalType": "bytes32",
					"name": "r",
					"type": "bytes32"
				},
				{
					"internalType": "bytes32",
					"name": "s",
					"type": "bytes32"
				}
			],
			"name": "permit",
			"outputs": [],
			"stateMutability": "nonpayable",
			"type": "function"
		},
		{
			"inputs": [
				{
					"internalType": "bytes32",
					"name": "role",
					"type": "bytes32"
				},
				{
					"internalType": "address",
					"name": "account",
					"type": "address"
				}
			],
			"name": "renounceRole",
			"outputs": [],
			"stateMutability": "nonpayable",
			"type": "function"
		},
		{
			"inputs": [
				{
					"internalType": "bytes32",
					"name": "role",
					"type": "bytes32"
				},
				{
					"internalType": "address",
					"name": "account",
					"type": "address"
				}
			],
			"name": "revokeRole",
			"outputs": [],
			"stateMutability": "nonpayable",
			"type": "function"
		},
		{
			"inputs": [
				{
					"internalType": "bytes4",
					"name": "interfaceId",
					"type": "bytes4"
				}
			],
			"name": "supportsInterface",
			"outputs": [
				{
					"internalType": "bool",
					"name": "",
					"type": "bool"
				}
			],
			"stateMutability": "view",
			"type": "function"
		},
		{
			"inputs": [],
			"name": "symbol",
			"outputs": [
				{
					"internalType": "string",
					"name": "",
					"type": "string"
				}
			],
			"stateMutability": "view",
			"type": "function"
		},
		{
			"inputs": [],
			"name": "totalSupply",
			"outputs": [
				{
					"internalType": "uint256",
					"name": "",
					"type": "uint256"
				}
			],
			"stateMutability": "view",
			"type": "function"
		},
		{
			"inputs": [
				{
					"internalType": "address",
					"name": "to",
					"type": "address"
				},
				{
					"internalType": "uint256",
					"name": "amount",
					"type": "uint256"
				}
			],
			"name": "transfer",
			"outputs": [
				{
					"internalType": "bool",
					"name": "",
					"type": "bool"
				}
			],
			"stateMutability": "nonpayable",
			"type": "function"
		},
		{
			"inputs": [
				{
					"internalType": "address",
					"name": "from",
					"type": "address"
				},
				{
					"internalType": "address",
					"name": "to",
					"type": "address"
				},
				{
					"internalType": "uint256",
					"name": "amount",
					"type": "uint256"
				}
			],
			"name": "transferFrom",
			"outputs": [
				{
					"internalType": "bool",
					"name": "",
					"type": "bool"
				}
			],
			"stateMutability": "nonpayable",
			"type": "function"
		}
	],
	"bytecode": "0x6101406040523480156200001257600080fd5b506040518060400160405280600781526020017f4d79546f6b656e00000000000000000000000000000000000000000000000000815250806040518060400160405280600181526020017f31000000000000000000000000000000000000000000000000000000000000008152506040518060400160405280600781526020017f4d79546f6b656e000000000000000000000000000000000000000000000000008152506040518060400160405280600381526020017f4d544b00000000000000000000000000000000000000000000000000000000008152508160039081620000fd91906200062d565b5080600490816200010f91906200062d565b50505060008280519060200120905060008280519060200120905060007f8b73c3c69bb8fe3d512ecc4cf759cc79239f7b179b0ffacaa9a75d522b39400f90508260e081815250508161010081815250504660a081815250506200017b8184846200021260201b60201c565b608081815250503073ffffffffffffffffffffffffffffffffffffffff1660c08173ffffffffffffffffffffffffffffffffffffffff1681525050806101208181525050505050505050620001da6000801b336200024e60201b60201c565b6200020c7f9f2df0fed2c77648de5860a4cc508cd0818c85b8b8a1ab4ceeef8d981c8956a6336200024e60201b60201c565b620007e2565b600083838346306040516020016200022f95949392919062000785565b6040516020818303038152906040528051906020012090509392505050565b6200026082826200034060201b60201c565b6200033c5760016005600084815260200190815260200160002060000160008373ffffffffffffffffffffffffffffffffffffffff1673ffffffffffffffffffffffffffffffffffffffff16815260200190815260200160002060006101000a81548160ff021916908315150217905550620002e1620003ab60201b60201c565b73ffffffffffffffffffffffffffffffffffffffff168173ffffffffffffffffffffffffffffffffffffffff16837f2f8788117e7eff1d82e926ec794901d17c78024a50270940304540a733656f0d60405160405180910390a45b5050565b60006005600084815260200190815260200160002060000160008373ffffffffffffffffffffffffffffffffffffffff1673ffffffffffffffffffffffffffffffffffffffff16815260200190815260200160002060009054906101000a900460ff16905092915050565b600033905090565b600081519050919050565b7f4e487b7100000000000000000000000000000000000000000000000000000000600052604160045260246000fd5b7f4e487b7100000000000000000000000000000000000000000000000000000000600052602260045260246000fd5b600060028204905060018216806200043557607f821691505b6020821081036200044b576200044a620003ed565b5b50919050565b60008190508160005260206000209050919050565b60006020601f8301049050919050565b600082821b905092915050565b600060088302620004b57fffffffffffffffffffffffffffffffffffffffffffffffffffffffffffffffff8262000476565b620004c1868362000476565b95508019841693508086168417925050509392505050565b6000819050919050565b6000819050919050565b60006200050e620005086200050284620004d9565b620004e3565b620004d9565b9050919050565b6000819050919050565b6200052a83620004ed565b62000542620005398262000515565b84845462000483565b825550505050565b600090565b620005596200054a565b620005668184846200051f565b505050565b5b818110156200058e57620005826000826200054f565b6001810190506200056c565b5050565b601f821115620005dd57620005a78162000451565b620005b28462000466565b81016020851015620005c2578190505b620005da620005d18562000466565b8301826200056b565b50505b505050565b600082821c905092915050565b60006200060260001984600802620005e2565b1980831691505092915050565b60006200061d8383620005ef565b9150826002028217905092915050565b6200063882620003b3565b67ffffffffffffffff811115620006545762000653620003be565b5b6200066082546200041c565b6200066d82828562000592565b600060209050601f831160018114620006a5576000841562000690578287015190505b6200069c85826200060f565b8655506200070c565b601f198416620006b58662000451565b60005b82811015620006df57848901518255600182019150602085019450602081019050620006b8565b86831015620006ff5784890151620006fb601f891682620005ef565b8355505b6001600288020188555050505b505050505050565b6000819050919050565b620007298162000714565b82525050565b6200073a81620004d9565b82525050565b600073ffffffffffffffffffffffffffffffffffffffff82169050919050565b60006200076d8262000740565b9050919050565b6200077f8162000760565b82525050565b600060a0820190506200079c60008301886200071e565b620007ab60208301876200071e565b620007ba60408301866200071e565b620007c960608301856200072f565b620007d8608083018462000774565b9695505050505050565b60805160a05160c05160e051610100516101205161454f620008326000396000611972015260006119b401526000611993015260006118c80152600061191e01526000611947015261454f6000f3fe608060405234801561001057600080fd5b50600436106101e55760003560e01c80636fcfff451161010f578063a457c2d7116100a2578063d539139311610071578063d539139314610616578063d547741f14610634578063dd62ed3e14610650578063f1127ed814610680576101e5565b8063a457c2d71461057e578063a9059cbb146105ae578063c3cda520146105de578063d505accf146105fa576101e5565b806391d14854116100de57806391d14854146104e257806395d89b41146105125780639ab24eb014610530578063a217fddf14610560576101e5565b80636fcfff451461042257806370a08231146104525780637ecebe00146104825780638e539e8c146104b2576101e5565b8063313ce567116101875780633a46b1a8116101565780633a46b1a81461038a57806340c10f19146103ba578063587cde1e146103d65780635c19a95c14610406576101e5565b8063313ce567146103025780633644e5151461032057806336568abe1461033e578063395093511461035a576101e5565b806318160ddd116101c357806318160ddd1461026857806323b872dd14610286578063248a9ca3146102b65780632f2ff15d146102e6576101e5565b806301ffc9a7146101ea57806306fdde031461021a578063095ea7b314610238575b600080fd5b61020460048036038101906101ff9190612e74565b6106b0565b6040516102119190612ebc565b60405180910390f35b61022261072a565b60405161022f9190612f67565b60405180910390f35b610252600480360381019061024d919061301d565b6107bc565b60405161025f9190612ebc565b60405180910390f35b6102706107df565b60405161027d919061306c565b60405180910390f35b6102a0600480360381019061029b9190613087565b6107e9565b6040516102ad9190612ebc565b60405180910390f35b6102d060048036038101906102cb9190613110565b610818565b6040516102dd919061314c565b60405180910390f35b61030060048036038101906102fb9190613167565b610838565b005b61030a610859565b60405161031791906131c3565b60405180910390f35b610328610862565b604051610335919061314c565b60405180910390f35b61035860048036038101906103539190613167565b610871565b005b610374600480360381019061036f919061301d565b6108f4565b6040516103819190612ebc565b60405180910390f35b6103a4600480360381019061039f919061301d565b61092b565b6040516103b1919061306c565b60405180910390f35b6103d460048036038101906103cf919061301d565b6109bf565b005b6103f060048036038101906103eb91906131de565b610a02565b6040516103fd919061321a565b60405180910390f35b610420600480360381019061041b91906131de565b610a6b565b005b61043c600480360381019061043791906131de565b610a7f565b6040516104499190613254565b60405180910390f35b61046c600480360381019061046791906131de565b610ad3565b604051610479919061306c565b60405180910390f35b61049c600480360381019061049791906131de565b610b1b565b6040516104a9919061306c565b60405180910390f35b6104cc60048036038101906104c7919061326f565b610b6b565b6040516104d9919061306c565b60405180910390f35b6104fc60048036038101906104f79190613167565b610bc1565b6040516105099190612ebc565b60405180910390f35b61051a610c2c565b6040516105279190612f67565b60405180910390f35b61054a600480360381019061054591906131de565b610cbe565b604051610557919061306c565b60405180910390f35b610568610dcf565b604051610575919061314c565b60405180910390f35b6105986004803603810190610593919061301d565b610dd6565b6040516105a59190612ebc565b60405180910390f35b6105c860048036038101906105c3919061301d565b610e4d565b6040516105d59190612ebc565b60405180910390f35b6105f860048036038101906105f391906132c8565b610e70565b005b610614600480360381019061060f9190613355565b610f74565b005b61061e6110b6565b60405161062b919061314c565b60405180910390f35b61064e60048036038101906106499190613167565b6110da565b005b61066a600480360381019061066591906133f7565b6110fb565b604051610677919061306c565b60405180910390f35b61069a60048036038101906106959190613463565b611182565b6040516106a79190613518565b60405180910390f35b60007f7965db0b000000000000000000000000000000000000000000000000000000007bffffffffffffffffffffffffffffffffffffffffffffffffffffffff1916827bffffffffffffffffffffffffffffffffffffffffffffffffffffffff19161480610723575061072282611292565b5b9050919050565b60606003805461073990613562565b80601f016020809104026020016040519081016040528092919081815260200182805461076590613562565b80156107b25780601f10610787576101008083540402835291602001916107b2565b820191906000526020600020905b81548152906001019060200180831161079557829003601f168201915b5050505050905090565b6000806107c76112fc565b90506107d4818585611304565b600191505092915050565b6000600254905090565b6000806107f46112fc565b90506108018582856114cd565b61080c858585611559565b60019150509392505050565b600060056000838152602001908152602001600020600101549050919050565b61084182610818565b61084a816117cf565b61085483836117e3565b505050565b60006012905090565b600061086c6118c4565b905090565b6108796112fc565b73ffffffffffffffffffffffffffffffffffffffff168173ffffffffffffffffffffffffffffffffffffffff16146108e6576040517f08c379a00000000000000000000000000000000000000000000000000000000081526004016108dd90613605565b60405180910390fd5b6108f082826119de565b5050565b6000806108ff6112fc565b905061092081858561091185896110fb565b61091b9190613654565b611304565b600191505092915050565b600043821061096f576040517f08c379a0000000000000000000000000000000000000000000000000000000008152600401610966906136d4565b60405180910390fd5b6109b7600960008573ffffffffffffffffffffffffffffffffffffffff1673ffffffffffffffffffffffffffffffffffffffff16815260200190815260200160002083611ac0565b905092915050565b7f9f2df0fed2c77648de5860a4cc508cd0818c85b8b8a1ab4ceeef8d981c8956a66109e9816117cf565b6109f38383611c11565b6109fd8384611c1f565b505050565b6000600860008373ffffffffffffffffffffffffffffffffffffffff1673ffffffffffffffffffffffffffffffffffffffff16815260200190815260200160002060009054906101000a900473ffffffffffffffffffffffffffffffffffffffff169050919050565b610a7c610a766112fc565b82611c1f565b50565b6000610acc600960008473ffffffffffffffffffffffffffffffffffffffff1673ffffffffffffffffffffffffffffffffffffffff16815260200190815260200160002080549050611d39565b9050919050565b60008060008373ffffffffffffffffffffffffffffffffffffffff1673ffffffffffffffffffffffffffffffffffffffff168152602001908152602001600020549050919050565b6000610b64600660008473ffffffffffffffffffffffffffffffffffffffff1673ffffffffffffffffffffffffffffffffffffffff168152602001908152602001600020611d8c565b9050919050565b6000438210610baf576040517f08c379a0000000000000000000000000000000000000000000000000000000008152600401610ba6906136d4565b60405180910390fd5b610bba600a83611ac0565b9050919050565b60006005600084815260200190815260200160002060000160008373ffffffffffffffffffffffffffffffffffffffff1673ffffffffffffffffffffffffffffffffffffffff16815260200190815260200160002060009054906101000a900460ff16905092915050565b606060048054610c3b90613562565b80601f0160208091040260200160405190810160405280929190818152602001828054610c6790613562565b8015610cb45780601f10610c8957610100808354040283529160200191610cb4565b820191906000526020600020905b815481529060010190602001808311610c9757829003601f168201915b5050505050905090565b600080600960008473ffffffffffffffffffffffffffffffffffffffff1673ffffffffffffffffffffffffffffffffffffffff16815260200190815260200160002080549050905060008114610da657600960008473ffffffffffffffffffffffffffffffffffffffff1673ffffffffffffffffffffffffffffffffffffffff168152602001908152602001600020600182610d5a91906136f4565b81548110610d6b57610d6a613728565b5b9060005260206000200160000160049054906101000a90047bffffffffffffffffffffffffffffffffffffffffffffffffffffffff16610da9565b60005b7bffffffffffffffffffffffffffffffffffffffffffffffffffffffff16915050919050565b6000801b81565b600080610de16112fc565b90506000610def82866110fb565b905083811015610e34576040517f08c379a0000000000000000000000000000000000000000000000000000000008152600401610e2b906137c9565b60405180910390fd5b610e418286868403611304565b60019250505092915050565b600080610e586112fc565b9050610e65818585611559565b600191505092915050565b83421115610eb3576040517f08c379a0000000000000000000000000000000000000000000000000000000008152600401610eaa90613835565b60405180910390fd5b6000610f15610f0d7fe48329057bfd03d55e49b547132e39cffd9c1820ad7b9d4c5307691425d15adf898989604051602001610ef29493929190613855565b60405160208183030381529060405280519060200120611d9a565b858585611db4565b9050610f2081611ddf565b8614610f61576040517f08c379a0000000000000000000000000000000000000000000000000000000008152600401610f58906138e6565b60405180910390fd5b610f6b8188611c1f565b50505050505050565b83421115610fb7576040517f08c379a0000000000000000000000000000000000000000000000000000000008152600401610fae90613952565b60405180910390fd5b60007f6e71edae12b1b97f4d1f60370fef10105fa2faae0126114a169c64845d6126c9888888610fe68c611ddf565b89604051602001610ffc96959493929190613972565b604051602081830303815290604052805190602001209050600061101f82611d9a565b9050600061102f82878787611db4565b90508973ffffffffffffffffffffffffffffffffffffffff168173ffffffffffffffffffffffffffffffffffffffff161461109f576040517f08c379a000000000000000000000000000000000000000000000000000000000815260040161109690613a1f565b60405180910390fd5b6110aa8a8a8a611304565b50505050505050505050565b7f9f2df0fed2c77648de5860a4cc508cd0818c85b8b8a1ab4ceeef8d981c8956a681565b6110e382610818565b6110ec816117cf565b6110f683836119de565b505050565b6000600160008473ffffffffffffffffffffffffffffffffffffffff1673ffffffffffffffffffffffffffffffffffffffff16815260200190815260200160002060008373ffffffffffffffffffffffffffffffffffffffff1673ffffffffffffffffffffffffffffffffffffffff16815260200190815260200160002054905092915050565b61118a612dd9565b600960008473ffffffffffffffffffffffffffffffffffffffff1673ffffffffffffffffffffffffffffffffffffffff1681526020019081526020016000208263ffffffff16815481106111e1576111e0613728565b5b906000526020600020016040518060400160405290816000820160009054906101000a900463ffffffff1663ffffffff1663ffffffff1681526020016000820160049054906101000a90047bffffffffffffffffffffffffffffffffffffffffffffffffffffffff167bffffffffffffffffffffffffffffffffffffffffffffffffffffffff167bffffffffffffffffffffffffffffffffffffffffffffffffffffffff1681525050905092915050565b60007f01ffc9a7000000000000000000000000000000000000000000000000000000007bffffffffffffffffffffffffffffffffffffffffffffffffffffffff1916827bffffffffffffffffffffffffffffffffffffffffffffffffffffffff1916149050919050565b600033905090565b600073ffffffffffffffffffffffffffffffffffffffff168373ffffffffffffffffffffffffffffffffffffffff1603611373576040517f08c379a000000000000000000000000000000000000000000000000000000000815260040161136a90613ab1565b60405180910390fd5b600073ffffffffffffffffffffffffffffffffffffffff168273ffffffffffffffffffffffffffffffffffffffff16036113e2576040517f08c379a00000000000000000000000000000000000000000000000000000000081526004016113d990613b43565b60405180910390fd5b80600160008573ffffffffffffffffffffffffffffffffffffffff1673ffffffffffffffffffffffffffffffffffffffff16815260200190815260200160002060008473ffffffffffffffffffffffffffffffffffffffff1673ffffffffffffffffffffffffffffffffffffffff168152602001908152602001600020819055508173ffffffffffffffffffffffffffffffffffffffff168373ffffffffffffffffffffffffffffffffffffffff167f8c5be1e5ebec7d5bd14f71427d1e84f3dd0314c0f7b2291e5b200ac8c7c3b925836040516114c0919061306c565b60405180910390a3505050565b60006114d984846110fb565b90507fffffffffffffffffffffffffffffffffffffffffffffffffffffffffffffffff81146115535781811015611545576040517f08c379a000000000000000000000000000000000000000000000000000000000815260040161153c90613baf565b60405180910390fd5b6115528484848403611304565b5b50505050565b600073ffffffffffffffffffffffffffffffffffffffff168373ffffffffffffffffffffffffffffffffffffffff16036115c8576040517f08c379a00000000000000000000000000000000000000000000000000000000081526004016115bf90613c41565b60405180910390fd5b600073ffffffffffffffffffffffffffffffffffffffff168273ffffffffffffffffffffffffffffffffffffffff1603611637576040517f08c379a000000000000000000000000000000000000000000000000000000000815260040161162e90613cd3565b60405180910390fd5b611642838383611e3d565b60008060008573ffffffffffffffffffffffffffffffffffffffff1673ffffffffffffffffffffffffffffffffffffffff168152602001908152602001600020549050818110156116c8576040517f08c379a00000000000000000000000000000000000000000000000000000000081526004016116bf90613d65565b60405180910390fd5b8181036000808673ffffffffffffffffffffffffffffffffffffffff1673ffffffffffffffffffffffffffffffffffffffff16815260200190815260200160002081905550816000808573ffffffffffffffffffffffffffffffffffffffff1673ffffffffffffffffffffffffffffffffffffffff168152602001908152602001600020600082825401925050819055508273ffffffffffffffffffffffffffffffffffffffff168473ffffffffffffffffffffffffffffffffffffffff167fddf252ad1be2c89b69c2b068fc378daa952ba7f163c4a11628f55a4df523b3ef846040516117b6919061306c565b60405180910390a36117c9848484611e42565b50505050565b6117e0816117db6112fc565b611e5c565b50565b6117ed8282610bc1565b6118c05760016005600084815260200190815260200160002060000160008373ffffffffffffffffffffffffffffffffffffffff1673ffffffffffffffffffffffffffffffffffffffff16815260200190815260200160002060006101000a81548160ff0219169083151502179055506118656112fc565b73ffffffffffffffffffffffffffffffffffffffff168173ffffffffffffffffffffffffffffffffffffffff16837f2f8788117e7eff1d82e926ec794901d17c78024a50270940304540a733656f0d60405160405180910390a45b5050565b60007f000000000000000000000000000000000000000000000000000000000000000073ffffffffffffffffffffffffffffffffffffffff163073ffffffffffffffffffffffffffffffffffffffff1614801561194057507f000000000000000000000000000000000000000000000000000000000000000046145b1561196d577f000000000000000000000000000000000000000000000000000000000000000090506119db565b6119d87f00000000000000000000000000000000000000000000000000000000000000007f00000000000000000000000000000000000000000000000000000000000000007f0000000000000000000000000000000000000000000000000000000000000000611ee1565b90505b90565b6119e88282610bc1565b15611abc5760006005600084815260200190815260200160002060000160008373ffffffffffffffffffffffffffffffffffffffff1673ffffffffffffffffffffffffffffffffffffffff16815260200190815260200160002060006101000a81548160ff021916908315150217905550611a616112fc565b73ffffffffffffffffffffffffffffffffffffffff168173ffffffffffffffffffffffffffffffffffffffff16837ff6391f5c32d9c69d2a47ea670b442974b53935d1edc7fd64eb21e047a839171b60405160405180910390a45b5050565b600080838054905090506000808290506005831115611b36576000611ae484611f1b565b84611aef91906136f4565b905085611afc8883612014565b60000160009054906101000a900463ffffffff1663ffffffff161115611b2457809150611b34565b600181611b319190613654565b92505b505b5b80821015611b96576000611b4b8383612029565b905085611b588883612014565b60000160009054906101000a900463ffffffff1663ffffffff161115611b8057809150611b90565b600181611b8d9190613654565b92505b50611b37565b60008114611be557611bb486600183611baf91906136f4565b612014565b60000160049054906101000a90047bffffffffffffffffffffffffffffffffffffffffffffffffffffffff16611be8565b60005b7bffffffffffffffffffffffffffffffffffffffffffffffffffffffff16935050505092915050565b611c1b828261204f565b5050565b6000611c2a83610a02565b90506000611c3784610ad3565b905082600860008673ffffffffffffffffffffffffffffffffffffffff1673ffffffffffffffffffffffffffffffffffffffff16815260200190815260200160002060006101000a81548173ffffffffffffffffffffffffffffffffffffffff021916908373ffffffffffffffffffffffffffffffffffffffff1602179055508273ffffffffffffffffffffffffffffffffffffffff168273ffffffffffffffffffffffffffffffffffffffff168573ffffffffffffffffffffffffffffffffffffffff167f3134e8a2e6d97e929a7e54011ea5485d7d196dd5f0ba4d4ef95803e8e3fc257f60405160405180910390a4611d338284836120dc565b50505050565b600063ffffffff8016821115611d84576040517f08c379a0000000000000000000000000000000000000000000000000000000008152600401611d7b90613df7565b60405180910390fd5b819050919050565b600081600001549050919050565b6000611dad611da76118c4565b836122d5565b9050919050565b6000806000611dc587878787612308565b91509150611dd2816123ea565b8192505050949350505050565b600080600660008473ffffffffffffffffffffffffffffffffffffffff1673ffffffffffffffffffffffffffffffffffffffff1681526020019081526020016000209050611e2c81611d8c565b9150611e3781612550565b50919050565b505050565b611e4d838383612566565b611e578283611c1f565b505050565b611e668282610bc1565b611edd57611e7381612591565b611e818360001c60206125be565b604051602001611e92929190613eeb565b6040516020818303038152906040526040517f08c379a0000000000000000000000000000000000000000000000000000000008152600401611ed49190612f67565b60405180910390fd5b5050565b60008383834630604051602001611efc959493929190613f25565b6040516020818303038152906040528051906020012090509392505050565b6000808203611f2d576000905061200f565b60006001611f3a846127fa565b901c6001901b90506001818481611f5457611f53613f78565b5b048201901c90506001818481611f6d57611f6c613f78565b5b048201901c90506001818481611f8657611f85613f78565b5b048201901c90506001818481611f9f57611f9e613f78565b5b048201901c90506001818481611fb857611fb7613f78565b5b048201901c90506001818481611fd157611fd0613f78565b5b048201901c90506001818481611fea57611fe9613f78565b5b048201901c905061200b8182858161200557612004613f78565b5b046128db565b9150505b919050565b60008260005281602060002001905092915050565b6000600282841861203a9190613fa7565b8284166120479190613654565b905092915050565b61205982826128f4565b612061612a4a565b7bffffffffffffffffffffffffffffffffffffffffffffffffffffffff166120876107df565b11156120c8576040517f08c379a00000000000000000000000000000000000000000000000000000000081526004016120bf9061404a565b60405180910390fd5b6120d6600a612a6e83612a84565b50505050565b8173ffffffffffffffffffffffffffffffffffffffff168373ffffffffffffffffffffffffffffffffffffffff16141580156121185750600081115b156122d057600073ffffffffffffffffffffffffffffffffffffffff168373ffffffffffffffffffffffffffffffffffffffff16146121f65760008061219f600960008773ffffffffffffffffffffffffffffffffffffffff1673ffffffffffffffffffffffffffffffffffffffff168152602001908152602001600020612d5385612a84565b915091508473ffffffffffffffffffffffffffffffffffffffff167fdec2bacdd2f05b59de34da9b523dff8be42e5e38e818c82fdb0bae774387a72483836040516121eb92919061406a565b60405180910390a250505b600073ffffffffffffffffffffffffffffffffffffffff168273ffffffffffffffffffffffffffffffffffffffff16146122cf57600080612278600960008673ffffffffffffffffffffffffffffffffffffffff1673ffffffffffffffffffffffffffffffffffffffff168152602001908152602001600020612a6e85612a84565b915091508373ffffffffffffffffffffffffffffffffffffffff167fdec2bacdd2f05b59de34da9b523dff8be42e5e38e818c82fdb0bae774387a72483836040516122c492919061406a565b60405180910390a250505b5b505050565b600082826040516020016122ea929190614100565b60405160208183030381529060405280519060200120905092915050565b6000807f7fffffffffffffffffffffffffffffff5d576e7357a4501ddfe92f46681b20a08360001c11156123435760006003915091506123e1565b6000600187878787604051600081526020016040526040516123689493929190614137565b6020604051602081039080840390855afa15801561238a573d6000803e3d6000fd5b505050602060405103519050600073ffffffffffffffffffffffffffffffffffffffff168173ffffffffffffffffffffffffffffffffffffffff16036123d8576000600192509250506123e1565b80600092509250505b94509492505050565b600060048111156123fe576123fd61417c565b5b8160048111156124115761241061417c565b5b031561254d576001600481111561242b5761242a61417c565b5b81600481111561243e5761243d61417c565b5b0361247e576040517f08c379a0000000000000000000000000000000000000000000000000000000008152600401612475906141f7565b60405180910390fd5b600260048111156124925761249161417c565b5b8160048111156124a5576124a461417c565b5b036124e5576040517f08c379a00000000000000000000000000000000000000000000000000000000081526004016124dc90614263565b60405180910390fd5b600360048111156124f9576124f861417c565b5b81600481111561250c5761250b61417c565b5b0361254c576040517f08c379a0000000000000000000000000000000000000000000000000000000008152600401612543906142f5565b60405180910390fd5b5b50565b6001816000016000828254019250508190555050565b612571838383612d69565b61258c61257d84610a02565b61258684610a02565b836120dc565b505050565b60606125b78273ffffffffffffffffffffffffffffffffffffffff16601460ff166125be565b9050919050565b6060600060028360026125d19190614315565b6125db9190613654565b67ffffffffffffffff8111156125f4576125f3614357565b5b6040519080825280601f01601f1916602001820160405280156126265781602001600182028036833780820191505090505b5090507f30000000000000000000000000000000000000000000000000000000000000008160008151811061265e5761265d613728565b5b60200101907effffffffffffffffffffffffffffffffffffffffffffffffffffffffffffff1916908160001a9053507f7800000000000000000000000000000000000000000000000000000000000000816001815181106126c2576126c1613728565b5b60200101907effffffffffffffffffffffffffffffffffffffffffffffffffffffffffffff1916908160001a905350600060018460026127029190614315565b61270c9190613654565b90505b60018111156127ac577f3031323334353637383961626364656600000000000000000000000000000000600f86166010811061274e5761274d613728565b5b1a60f81b82828151811061276557612764613728565b5b60200101907effffffffffffffffffffffffffffffffffffffffffffffffffffffffffffff1916908160001a905350600485901c9450806127a590614386565b905061270f565b50600084146127f0576040517f08c379a00000000000000000000000000000000000000000000000000000000081526004016127e7906143fb565b60405180910390fd5b8091505092915050565b600080600090506000608084901c111561281c57608083901c92506080810190505b6000604084901c111561283757604083901c92506040810190505b6000602084901c111561285257602083901c92506020810190505b6000601084901c111561286d57601083901c92506010810190505b6000600884901c111561288857600883901c92506008810190505b6000600484901c11156128a357600483901c92506004810190505b6000600284901c11156128be57600283901c92506002810190505b6000600184901c11156128d2576001810190505b80915050919050565b60008183106128ea57816128ec565b825b905092915050565b600073ffffffffffffffffffffffffffffffffffffffff168273ffffffffffffffffffffffffffffffffffffffff1603612963576040517f08c379a000000000000000000000000000000000000000000000000000000000815260040161295a90614467565b60405180910390fd5b61296f60008383611e3d565b80600260008282546129819190613654565b92505081905550806000808473ffffffffffffffffffffffffffffffffffffffff1673ffffffffffffffffffffffffffffffffffffffff168152602001908152602001600020600082825401925050819055508173ffffffffffffffffffffffffffffffffffffffff16600073ffffffffffffffffffffffffffffffffffffffff167fddf252ad1be2c89b69c2b068fc378daa952ba7f163c4a11628f55a4df523b3ef83604051612a32919061306c565b60405180910390a3612a4660008383611e42565b5050565b60007bffffffffffffffffffffffffffffffffffffffffffffffffffffffff905090565b60008183612a7c9190613654565b905092915050565b6000806000858054905090506000808214612b5357612aaf87600184612aaa91906136f4565b612014565b6040518060400160405290816000820160009054906101000a900463ffffffff1663ffffffff1663ffffffff1681526020016000820160049054906101000a90047bffffffffffffffffffffffffffffffffffffffffffffffffffffffff167bffffffffffffffffffffffffffffffffffffffffffffffffffffffff167bffffffffffffffffffffffffffffffffffffffffffffffffffffffff1681525050612b8f565b6040518060400160405280600063ffffffff16815260200160007bffffffffffffffffffffffffffffffffffffffffffffffffffffffff168152505b905080602001517bffffffffffffffffffffffffffffffffffffffffffffffffffffffff169350612bc484868863ffffffff16565b9250600082118015612bdf575043816000015163ffffffff16145b15612c5957612bed83612d6e565b612c0388600185612bfe91906136f4565b612014565b60000160046101000a8154817bffffffffffffffffffffffffffffffffffffffffffffffffffffffff02191690837bffffffffffffffffffffffffffffffffffffffffffffffffffffffff160217905550612d49565b866040518060400160405280612c6e43611d39565b63ffffffff168152602001612c8286612d6e565b7bffffffffffffffffffffffffffffffffffffffffffffffffffffffff168152509080600181540180825580915050600190039060005260206000200160009091909190915060008201518160000160006101000a81548163ffffffff021916908363ffffffff16021790555060208201518160000160046101000a8154817bffffffffffffffffffffffffffffffffffffffffffffffffffffffff02191690837bffffffffffffffffffffffffffffffffffffffffffffffffffffffff16021790555050505b5050935093915050565b60008183612d6191906136f4565b905092915050565b505050565b60007bffffffffffffffffffffffffffffffffffffffffffffffffffffffff8016821115612dd1576040517f08c379a0000000000000000000000000000000000000000000000000000000008152600401612dc8906144f9565b60405180910390fd5b819050919050565b6040518060400160405280600063ffffffff16815260200160007bffffffffffffffffffffffffffffffffffffffffffffffffffffffff1681525090565b600080fd5b60007fffffffff0000000000000000000000000000000000000000000000000000000082169050919050565b612e5181612e1c565b8114612e5c57600080fd5b50565b600081359050612e6e81612e48565b92915050565b600060208284031215612e8a57612e89612e17565b5b6000612e9884828501612e5f565b91505092915050565b60008115159050919050565b612eb681612ea1565b82525050565b6000602082019050612ed16000830184612ead565b92915050565b600081519050919050565b600082825260208201905092915050565b60005b83811015612f11578082015181840152602081019050612ef6565b60008484015250505050565b6000601f19601f8301169050919050565b6000612f3982612ed7565b612f438185612ee2565b9350612f53818560208601612ef3565b612f5c81612f1d565b840191505092915050565b60006020820190508181036000830152612f818184612f2e565b905092915050565b600073ffffffffffffffffffffffffffffffffffffffff82169050919050565b6000612fb482612f89565b9050919050565b612fc481612fa9565b8114612fcf57600080fd5b50565b600081359050612fe181612fbb565b92915050565b6000819050919050565b612ffa81612fe7565b811461300557600080fd5b50565b60008135905061301781612ff1565b92915050565b6000806040838503121561303457613033612e17565b5b600061304285828601612fd2565b925050602061305385828601613008565b9150509250929050565b61306681612fe7565b82525050565b6000602082019050613081600083018461305d565b92915050565b6000806000606084860312156130a05761309f612e17565b5b60006130ae86828701612fd2565b93505060206130bf86828701612fd2565b92505060406130d086828701613008565b9150509250925092565b6000819050919050565b6130ed816130da565b81146130f857600080fd5b50565b60008135905061310a816130e4565b92915050565b60006020828403121561312657613125612e17565b5b6000613134848285016130fb565b91505092915050565b613146816130da565b82525050565b6000602082019050613161600083018461313d565b92915050565b6000806040838503121561317e5761317d612e17565b5b600061318c858286016130fb565b925050602061319d85828601612fd2565b9150509250929050565b600060ff82169050919050565b6131bd816131a7565b82525050565b60006020820190506131d860008301846131b4565b92915050565b6000602082840312156131f4576131f3612e17565b5b600061320284828501612fd2565b91505092915050565b61321481612fa9565b82525050565b600060208201905061322f600083018461320b565b92915050565b600063ffffffff82169050919050565b61324e81613235565b82525050565b60006020820190506132696000830184613245565b92915050565b60006020828403121561328557613284612e17565b5b600061329384828501613008565b91505092915050565b6132a5816131a7565b81146132b057600080fd5b50565b6000813590506132c28161329c565b92915050565b60008060008060008060c087890312156132e5576132e4612e17565b5b60006132f389828a01612fd2565b965050602061330489828a01613008565b955050604061331589828a01613008565b945050606061332689828a016132b3565b935050608061333789828a016130fb565b92505060a061334889828a016130fb565b9150509295509295509295565b600080600080600080600060e0888a03121561337457613373612e17565b5b60006133828a828b01612fd2565b97505060206133938a828b01612fd2565b96505060406133a48a828b01613008565b95505060606133b58a828b01613008565b94505060806133c68a828b016132b3565b93505060a06133d78a828b016130fb565b92505060c06133e88a828b016130fb565b91505092959891949750929550565b6000806040838503121561340e5761340d612e17565b5b600061341c85828601612fd2565b925050602061342d85828601612fd2565b9150509250929050565b61344081613235565b811461344b57600080fd5b50565b60008135905061345d81613437565b92915050565b6000806040838503121561347a57613479612e17565b5b600061348885828601612fd2565b92505060206134998582860161344e565b9150509250929050565b6134ac81613235565b82525050565b60007bffffffffffffffffffffffffffffffffffffffffffffffffffffffff82169050919050565b6134e3816134b2565b82525050565b6040820160008201516134ff60008501826134a3565b50602082015161351260208501826134da565b50505050565b600060408201905061352d60008301846134e9565b92915050565b7f4e487b7100000000000000000000000000000000000000000000000000000000600052602260045260246000fd5b6000600282049050600182168061357a57607f821691505b60208210810361358d5761358c613533565b5b50919050565b7f416363657373436f6e74726f6c3a2063616e206f6e6c792072656e6f756e636560008201527f20726f6c657320666f722073656c660000000000000000000000000000000000602082015250565b60006135ef602f83612ee2565b91506135fa82613593565b604082019050919050565b6000602082019050818103600083015261361e816135e2565b9050919050565b7f4e487b7100000000000000000000000000000000000000000000000000000000600052601160045260246000fd5b600061365f82612fe7565b915061366a83612fe7565b925082820190508082111561368257613681613625565b5b92915050565b7f4552433230566f7465733a20626c6f636b206e6f7420796574206d696e656400600082015250565b60006136be601f83612ee2565b91506136c982613688565b602082019050919050565b600060208201905081810360008301526136ed816136b1565b9050919050565b60006136ff82612fe7565b915061370a83612fe7565b925082820390508181111561372257613721613625565b5b92915050565b7f4e487b7100000000000000000000000000000000000000000000000000000000600052603260045260246000fd5b7f45524332303a2064656372656173656420616c6c6f77616e63652062656c6f7760008201527f207a65726f000000000000000000000000000000000000000000000000000000602082015250565b60006137b3602583612ee2565b91506137be82613757565b604082019050919050565b600060208201905081810360008301526137e2816137a6565b9050919050565b7f4552433230566f7465733a207369676e61747572652065787069726564000000600082015250565b600061381f601d83612ee2565b915061382a826137e9565b602082019050919050565b6000602082019050818103600083015261384e81613812565b9050919050565b600060808201905061386a600083018761313d565b613877602083018661320b565b613884604083018561305d565b613891606083018461305d565b95945050505050565b7f4552433230566f7465733a20696e76616c6964206e6f6e636500000000000000600082015250565b60006138d0601983612ee2565b91506138db8261389a565b602082019050919050565b600060208201905081810360008301526138ff816138c3565b9050919050565b7f45524332305065726d69743a206578706972656420646561646c696e65000000600082015250565b600061393c601d83612ee2565b915061394782613906565b602082019050919050565b6000602082019050818103600083015261396b8161392f565b9050919050565b600060c082019050613987600083018961313d565b613994602083018861320b565b6139a1604083018761320b565b6139ae606083018661305d565b6139bb608083018561305d565b6139c860a083018461305d565b979650505050505050565b7f45524332305065726d69743a20696e76616c6964207369676e61747572650000600082015250565b6000613a09601e83612ee2565b9150613a14826139d3565b602082019050919050565b60006020820190508181036000830152613a38816139fc565b9050919050565b7f45524332303a20617070726f76652066726f6d20746865207a65726f2061646460008201527f7265737300000000000000000000000000000000000000000000000000000000602082015250565b6000613a9b602483612ee2565b9150613aa682613a3f565b604082019050919050565b60006020820190508181036000830152613aca81613a8e565b9050919050565b7f45524332303a20617070726f766520746f20746865207a65726f20616464726560008201527f7373000000000000000000000000000000000000000000000000000000000000602082015250565b6000613b2d602283612ee2565b9150613b3882613ad1565b604082019050919050565b60006020820190508181036000830152613b5c81613b20565b9050919050565b7f45524332303a20696e73756666696369656e7420616c6c6f77616e6365000000600082015250565b6000613b99601d83612ee2565b9150613ba482613b63565b602082019050919050565b60006020820190508181036000830152613bc881613b8c565b9050919050565b7f45524332303a207472616e736665722066726f6d20746865207a65726f20616460008201527f6472657373000000000000000000000000000000000000000000000000000000602082015250565b6000613c2b602583612ee2565b9150613c3682613bcf565b604082019050919050565b60006020820190508181036000830152613c5a81613c1e565b9050919050565b7f45524332303a207472616e7366657220746f20746865207a65726f206164647260008201527f6573730000000000000000000000000000000000000000000000000000000000602082015250565b6000613cbd602383612ee2565b9150613cc882613c61565b604082019050919050565b60006020820190508181036000830152613cec81613cb0565b9050919050565b7f45524332303a207472616e7366657220616d6f756e742065786365656473206260008201527f616c616e63650000000000000000000000000000000000000000000000000000602082015250565b6000613d4f602683612ee2565b9150613d5a82613cf3565b604082019050919050565b60006020820190508181036000830152613d7e81613d42565b9050919050565b7f53616665436173743a2076616c756520646f65736e27742066697420696e203360008201527f3220626974730000000000000000000000000000000000000000000000000000602082015250565b6000613de1602683612ee2565b9150613dec82613d85565b604082019050919050565b60006020820190508181036000830152613e1081613dd4565b9050919050565b600081905092915050565b7f416363657373436f6e74726f6c3a206163636f756e7420000000000000000000600082015250565b6000613e58601783613e17565b9150613e6382613e22565b601782019050919050565b6000613e7982612ed7565b613e838185613e17565b9350613e93818560208601612ef3565b80840191505092915050565b7f206973206d697373696e6720726f6c6520000000000000000000000000000000600082015250565b6000613ed5601183613e17565b9150613ee082613e9f565b601182019050919050565b6000613ef682613e4b565b9150613f028285613e6e565b9150613f0d82613ec8565b9150613f198284613e6e565b91508190509392505050565b600060a082019050613f3a600083018861313d565b613f47602083018761313d565b613f54604083018661313d565b613f61606083018561305d565b613f6e608083018461320b565b9695505050505050565b7f4e487b7100000000000000000000000000000000000000000000000000000000600052601260045260246000fd5b6000613fb282612fe7565b9150613fbd83612fe7565b925082613fcd57613fcc613f78565b5b828204905092915050565b7f4552433230566f7465733a20746f74616c20737570706c79207269736b73206f60008201527f766572666c6f77696e6720766f74657300000000000000000000000000000000602082015250565b6000614034603083612ee2565b915061403f82613fd8565b604082019050919050565b6000602082019050818103600083015261406381614027565b9050919050565b600060408201905061407f600083018561305d565b61408c602083018461305d565b9392505050565b7f1901000000000000000000000000000000000000000000000000000000000000600082015250565b60006140c9600283613e17565b91506140d482614093565b600282019050919050565b6000819050919050565b6140fa6140f5826130da565b6140df565b82525050565b600061410b826140bc565b915061411782856140e9565b60208201915061412782846140e9565b6020820191508190509392505050565b600060808201905061414c600083018761313d565b61415960208301866131b4565b614166604083018561313d565b614173606083018461313d565b95945050505050565b7f4e487b7100000000000000000000000000000000000000000000000000000000600052602160045260246000fd5b7f45434453413a20696e76616c6964207369676e61747572650000000000000000600082015250565b60006141e1601883612ee2565b91506141ec826141ab565b602082019050919050565b60006020820190508181036000830152614210816141d4565b9050919050565b7f45434453413a20696e76616c6964207369676e6174757265206c656e67746800600082015250565b600061424d601f83612ee2565b915061425882614217565b602082019050919050565b6000602082019050818103600083015261427c81614240565b9050919050565b7f45434453413a20696e76616c6964207369676e6174757265202773272076616c60008201527f7565000000000000000000000000000000000000000000000000000000000000602082015250565b60006142df602283612ee2565b91506142ea82614283565b604082019050919050565b6000602082019050818103600083015261430e816142d2565b9050919050565b600061432082612fe7565b915061432b83612fe7565b925082820261433981612fe7565b915082820484148315176143505761434f613625565b5b5092915050565b7f4e487b7100000000000000000000000000000000000000000000000000000000600052604160045260246000fd5b600061439182612fe7565b9150600082036143a4576143a3613625565b5b600182039050919050565b7f537472696e67733a20686578206c656e67746820696e73756666696369656e74600082015250565b60006143e5602083612ee2565b91506143f0826143af565b602082019050919050565b60006020820190508181036000830152614414816143d8565b9050919050565b7f45524332303a206d696e7420746f20746865207a65726f206164647265737300600082015250565b6000614451601f83612ee2565b915061445c8261441b565b602082019050919050565b6000602082019050818103600083015261448081614444565b9050919050565b7f53616665436173743a2076616c756520646f65736e27742066697420696e203260008201527f3234206269747300000000000000000000000000000000000000000000000000602082015250565b60006144e3602783612ee2565b91506144ee82614487565b604082019050919050565b60006020820190508181036000830152614512816144d6565b905091905056fea264697066735822122045f0529dba6c201ee2f96ea3c4ca34b514d7dd962633946877d303de1cca2c7264736f6c63430008120033",
	"linkReferences": {},
	"deployedLinkReferences": {}
}